:020000040800F2
:10000000380C002089010008E1010008E101000826
:10001000E1010008E1010008E10100080000000022
:10002000000000000000000000000000E1010008E6
:10003000E101000800000000E1010008B102000831
:10004000E1010008E1010008E1010008E101000808
:10005000E1010008E1010008E1010008E1010008F8
:10006000E1010008E1010008E1010008E1010008E8
:10007000E1010008E1010008E1010008E1010008D8
:10008000E1010008E1010008E1010008E1010008C8
:10009000E1010008E1010008E1010008E1010008B8
:1000A000E1010008E1010008E1010008E1010008A8
:1000B000E1010008E1010008E1010008E101000898
:1000C000E1010008E1010008E1010008E101000888
:1000D000E1010008E1010008E1010008E101000878
:1000E000E1010008E1010008E1010008E101000868
:1000F000E1010008E1010008E1010008E101000858
:10010000E1010008E1010008E1010008E101000847
:10011000E1010008E1010008E1010008E101000837
:10012000E1010008E1010008E1010008E101000827
:10013000E1010008E1010008E1010008E101000817
:10014000E1010008E1010008E1010008E101000807
:10015000E1010008E1010008E1010008E1010008F7
:10016000E1010008E1010008E1010008E1010008E7
:10017000E1010008E1010008E1010008E1010008D7
:10018000E1010008E101000880B582B000AF0F4B2B
:100190007B600F4B3B6007E03B681A1D3A607A6852
:1001A000111D796012681A603B680A4A9342F3D3C2
:1001B00009480A494FF000028842B8BF40F8042BB2
:1001C000FADB00F083F80837BD4680BD60120008F6
:1001D0000000002018000020180000203804002033
:1001E00080B400AFFEE700BF80B483B000AF034629
:1001F0003960FB7197F90730002B0BDA0D49FB7959
:1002000003F00F03043B3A68D2B21201D2B20B449E
:100210001A7609E0084997F907303A68D2B2120114
:10022000D2B20B4483F800230C37BD465DF8047B43
:10023000704700BF00ED00E000E100E080B582B053
:1002400000AF78607B68B3F1807F01D3012311E0B8
:100250000A4A7B6823F07F43013B53604FF0FF3035
:100260000F21FFF7C1FF054B00229A60034B0722C5
:100270001A60002318460837BD4680BD10E000E034
:1002800080B485B000AF7860084B1B68FB6000E06D
:1002900000BF064B1A68FB68D21A7B689A42F7D3F4
:1002A0001437BD465DF8047B704700BF180000207E
:1002B00080B400AF044B1B680133034A1360BD4692
:1002C0005DF8047B704700BF1800002080B582B045
:1002D00002AF0B4B1B680B4AA2FB03239B0918467A
:1002E000FFF7ACFF00F05EFC0023009306480021FE
:1002F0000022002300F0F4F900F0A4FDFEE700BFA7
:1003000000000020D34D6210700F000880B483B04D
:1003100000AF78600B46FB70FB78002B06D00949D4
:10032000084B1A6B7B6813430B6306E00549054BCA
:100330001A6B7B68DB4313400B630C37BD465DF8DB
:10034000047B70470038024080B483B000AF78600F
:100350000B46FB70FB78002B06D00949084B5A6C02
:100360007B6813434B6406E00549054B5A6C7B6878
:10037000DB4313404B640C37BD465DF8047B70478C
:100380000038024080B500AF034800214FF480627E
:1003900000F072FD80BD00BF3800002080B485B041
:1003A00000AF0346FB800B46BB801346FB70B7F9DA
:1003B00006307F2B0BDCB7F90630002B07DBB7F9D3
:1003C00004303F2B03DCB7F90430002B01DA0123A2
:1003D00043E0B7F90430DB109BB29BB2DB019AB269
:1003E000FB8813449BB2BB81B7F90C301E4AD35C27
:1003F000FB73FB78002B14D1B7F904201B4B13407F
:10040000002B03DA013B63F0070301339BB21BB2FD
:10041000012202FA03F3DAB2FB7B1343DBB2FB7374
:1004200015E0B7F90420114B1340002B03DA013B10
:1004300063F0070301339BB21BB2012202FA03F3FC
:10044000DBB2DB43DAB2FB7B1340DBB2FB73B7F901
:100450000C300549FA7BCA54002318461437BD46B0
:100460005DF8047B704700BF380000200700008063
:1004700090B585B000AF0446084611461A4623469B
:10048000FB800346BB800B467B8013467B70FB885A
:10049000203BFB80FB881A4692001344FB807B784C
:1004A000012B59D0022B00F0AE80002B40F00881C8
:1004B0000023FB814CE0FA88FB891344864AD35C15
:1004C0007B810023BB813DE07A89BB8942FA03F33B
:1004D00003F00103002B19D0BA88FB8913449BB2A7
:1004E00098B27A88BB8913449BB299B297F82030AE
:1004F000012B0CBF01230023DBB21C4602B20BB25E
:10050000104619462246FFF749FF18E0BA88FB89D2
:1005100013449BB298B27A88BB8913449BB299B2B8
:1005200097F82030002B0CBF01230023DBB21C46C0
:1005300002B20BB2104619462246FFF72FFFBB89C5
:100540000133BB81BB89072BBED9FB890133FB81FA
:10055000FB89042BAFD9B3E00023FB814FE00023DC
:10056000BB8146E0FB88FA89520892B213445A4A8A
:10057000D35C1A46BB895B089BB242FA03F303F0D3
:100580000103002B19D0BA88FB8913449BB298B29F
:100590007A88BB8913449BB299B297F82030012B1B
:1005A0000CBF01230023DBB21C4602B20BB2104683
:1005B00019462246FFF7F2FE18E0BA88FB89134479
:1005C0009BB298B27A88BB8913449BB299B297F8D0
:1005D0002030002B0CBF01230023DBB21C4602B2EB
:1005E0000BB2104619462246FFF7D8FEBB890133ED
:1005F000BB81BB890F2BB5D9FB890133FB81FB89FB
:10060000092BACD95CE00023FB8155E00023BB81C2
:100610004CE0FB88FA893149A1FB0212520892B2E0
:1006200013442D4AD35C1946BB892C4AA2FB0323F1
:100630005B089BB241FA03F303F00103002B19D0CE
:10064000BA88FB8913449BB298B27A88BB89134459
:100650009BB299B297F82030012B0CBF01230023E5
:10066000DBB21C4602B20BB2104619462246FFF717
:1006700095FE18E0BA88FB8913449BB298B27A8839
:10068000BB8913449BB299B297F82030002B0CBF62
:1006900001230023DBB21C4602B20BB210461946FE
:1006A0002246FFF77BFEBB890133BB81BB89172B39
:1006B000AFD9FB890133FB81FB890E2BA6D900BF83
:1006C000B7F904107B785A1C13469B0013440B4463
:1006D00018461437BD4690BD780F0008ABAAAAAAE9
:1006E00090B589B002AFF860084611461A46034635
:1006F0007B810B463B811346FB717B89BB75F86898
:1007000000F008FC03467B75FB79012B3AD0022BE5
:100710006ED0002B40F09F80B7F90A107A7D134607
:100720009B079B1A9B009B1A8033994203DCB7F905
:100730000830382B02DD4FF0FF3397E00023FB75C4
:100740001BE0FB7DFA6813441B7898B2FB7D9BB2DB
:100750001A46920013449AB27B8913449BB29BB20F
:1007600019B2B7F90820FC7997F82830009323468E
:10077000FFF77EFEFB7D0133FB75FA7D7B7D9A42A0
:10078000DFD368E0B7F90A207B7D6FF0090101FB38
:1007900003F380339A4203DCB7F90830302B02DDD3
:1007A0004FF0FF3362E00023FB751CE0FB7DFA682D
:1007B00013441B7898B2FB7D9BB21A4692001344F7
:1007C0005B009AB27B8913449BB29BB219B2B7F912
:1007D0000820FC7997F8283000932346FFF748FE5D
:1007E000FB7D0133FB75FA7D7B7D9A42DED332E0DF
:1007F000B7F90A207B7D19461B01CB1A80339A4238
:1008000003DCB7F90830282B02DD4FF0FF332DE071
:100810000023FB751BE0FB7DFA6813441B7898B23C
:10082000FB7D9BB21A461201D31A9AB27B891344FC
:100830009BB29BB219B2B7F90820FC7997F828301F
:1008400000932346FFF714FEFB7D0133FB75FA7D11
:100850007B7D9A42DFD3B7F90A10787DFB795A1C69
:1008600013469B00134403FB00F30B4418461C374C
:10087000BD4690BD80B487B000AF7860396000237A
:100880007B6100233B610023FB6000237B6176E0FA
:100890007B69012202FA03F33B613B681A683B69FA
:1008A0001340FB60FA683B699A4265D17B681A681D
:1008B0007B695B00194603238B40DB431A407B684E
:1008C0001A607B681A683B681B7919467B695B0074
:1008D00001FA03F31A437B681A603B681B79012B0A
:1008E00003D03B681B79022B2ED17B689A687B6909
:1008F0005B00194603238B40DB431A407B689A60F8
:100900007B689A683B685B7919467B695B0001FAF2
:1009100003F31A437B689A607B685A687B699BB2D1
:10092000194601238B40DB431A407B685A607B6881
:100930005B683A68927911467A6992B201FA02F2DA
:1009400092B21A437B685A607B68DA687B699BB213
:100950005B00032101FA03F3DB431A407B68DA6092
:100960007B68DA683B68DB7919467B695B0001FAD2
:1009700003F31A437B68DA607B6901337B617B692F
:100980000F2B85D91C37BD465DF8047B704700BF2F
:1009900080B483B000AF78600B467B807B687A8838
:1009A0001A830C37BD465DF8047B704780B483B072
:1009B00000AF78600B467B807B687A885A830C375F
:1009C000BD465DF8047B704780B483B000AF7860AB
:1009D0000B467B8013467B707B78002B03D07B68B3
:1009E0007A881A8302E07B687A885A830C37BD467E
:1009F0005DF8047B704700BF80B485B000AF7860BD
:100A00000B467B8013467B700023FB600023BB609A
:100A10007B787A8802F0070292009340FB607B8823
:100A2000DB089BB218467B88DB089BB21A467B68C2
:100A3000083253F822207B8803F007039B001946F5
:100A40000F238B40DB4302EA03017B6800F10802BD
:100A500043F822107B88DB089BB21A467B68083279
:100A600053F82220FB681343BB607B88DB089BB2F2
:100A70001A467B680832B96843F822101437BD461D
:100A80005DF8047B704700BF80B485B000AF78602C
:100A900039600023FB817B681B88FB81FB8903F4A1
:100AA0004153FB813B681A883B685B8813439AB2C9
:100AB0003B689B8813439AB23B68DB8813439AB226
:100AC0003B681B8913439AB23B685B8913439AB214
:100AD0003B689B8913439AB23B68DB8913439AB204
:100AE000FB891343FB817B68FA891A807B689B8BA7
:100AF0009BB223F400639AB27B689A833B681A8A9C
:100B00007B681A821437BD465DF8047B704700BFCE
:100B100080B483B000AF78600B46FB70FB78002B8D
:100B200008D07B681B889BB243F040039AB27B6875
:100B30001A8007E07B681B889BB223F040039AB2BF
:100B40007B681A800C37BD465DF8047B704700BF98
:100B500080B483B000AF78600B467B807B687A8876
:100B60009A810C37BD465DF8047B704780B485B030
:100B700000AF78600B467B800023FB737B681B898A
:100B80009AB27B8813409BB2002B02D00123FB73E7
:100B900001E00023FB73FB7B18461437BD465DF86C
:100BA000047B704780B500AF874B1B78012B60D169
:100BB000854B00221A7001200121FFF7A7FB1020AE
:100BC0000121FFF7A3FB4FF480500121FFF7BCFB8D
:100BD0007E4B14221A607D4B01221A717B4B00223E
:100BE0009A717A4B0122DA71784B02225A71784855
:100BF0007649FFF73FFE754B08221A607548734926
:100C0000FFF738FE714BA0221A60704B02221A7156
:100C10006F486E49FFF72EFE6D4805210522FFF74C
:100C2000EBFE6B4807210522FFF7E6FE6A4B102218
:100C30009A81694B00221A81674B0022DA80664B49
:100C400000229A80644B4FF440421A80624B00228B
:100C5000DA81614B4FF482725A805F4B4FF400721D
:100C60005A815E485C49FFF70FFF5C480121FFF79E
:100C70004FFF57481C21FFF799FE0120FFF700FBAB
:100C800053481021FFF784FE0120FFF7F9FA50487E
:100C90001021FFF78BFE0120FFF7F2FA4C481C21D0
:100CA000FFF776FEA8200021012200F099F83F20EE
:100CB0000021012200F094F8D3200021012200F04D
:100CC0008FF800200021012200F08AF84020002146
:100CD000012200F085F8A1200021012200F080F817
:100CE000DA200021012200F07BF8122000210122ED
:100CF00000F076F8C8200021012200F071F8812070
:100D00000021012200F06CF87F200021012200F078
:100D100067F820200021012200F062F80020002165
:100D2000012200F05DF821200021012200F058F896
:100D300000200021012200F053F87F200021012231
:100D400000F04EF822200021012200F049F8002096
:100D50000021012200F044F807200021012200F0C8
:100D60003FF8A6200021012200F03AF8DB20002104
:100D7000012200F035F840200021012200F030F877
:100D8000A4200021012200F02BF8D520002101220F
:100D900000F026F880200021012200F021F88D20AB
:100DA0000021012200F01CF814200021012200F093
:100DB00017F8AF200021012200F012F8FFF7E2FA45
:100DC00000F040F880BD00BF14000020300000207B
:100DD00000000240001002401C00002000300140D2
:100DE00080B582B000AF0346FB710B46BB71134662
:100DF0007B71BB79114804211A46FFF7E5FD7B7929
:100E0000002B03D00D480821FFF7D0FDFB799BB2E2
:100E10000B481946FFF79CFE00BF09488021FFF7E9
:100E2000A5FE0346012BF8D07B79002B03D00348A5
:100E30000821FFF7ADFD0837BD4680BD0000024028
:100E40000030014080B582B000AF0023FB800AE093
:100E5000FB88084AD35C184601210122FFF7C0FF36
:100E6000FB880133FB80FB88B3F5806FF0D3083734
:100E7000BD4680BD3800002070B4840746D0541EA3
:100E8000002A41D0CDB2034602E0621EE4B314460C
:100E900003F8015B9A07F8D1032C2ED9CDB245EAAD
:100EA00005250F2C45EA054519D903F11002264600
:100EB000103E0F2E42F8105C42F80C5C42F8085CC1
:100EC00042F8045C02F11002F2D8A4F1100222F000
:100ED0000F0204F00F041032032C13440DD91E46E8
:100EE0002246043A032A46F8045BFAD8221F22F06D
:100EF00003020432134404F003042CB1C9B21C44AD
:100F000003F8011BA342FBD170BC70471446034693
:100F1000C2E700BF20F0030110F00300C0F10000A1
:100F200051F8043B00F1040C4FEACC0C6FF00002C6
:100F30001CBF22FA0CF213434FF0010C4CEA0C2CAC
:100F40004CEA0C4CA3EB0C0222EA030212EACC128C
:100F500004BF51F8043B0430F4D0C2F1000102EAAE
:100F60000102B2FA82F2C2F11F0200EBD200704716
:100F700048656C6C6F000000000000000000005F1E
:100F800000000007000700147F147F14242A7F2A22
:100F900012231308646236495522500005030000ED
:100FA000001C2241000041221C0014083E081408C5
:100FB000083E0808005030000008080808080060D3
:100FC00060000020100804023E5149453E00427F67
:100FD000400042615149462141454B311814127F6E
:100FE0001027454545393C4A4949300171090503F7
:100FF0003649494936064949291E0036360000005F
:101000005636000008142241001414141414004130
:101010002214080201510906324979413E7E11111C
:10102000117E7F494949363E414141227F4141225B
:101030001C7F494949417F090909013E4149497AD3
:101040007F0808087F00417F41002040413F017F29
:10105000081422417F404040407F020C027F7F0401
:1010600008107F3E4141413E7F090909063E41513A
:10107000215E7F09192946464949493101017F010D
:10108000013F4040403F1F2040201F3F4038403F2D
:101090006314081463070870080761514945430049
:1010A0007F41410002040810200041417F000402FA
:1010B000010204404040404000010204002054541A
:1010C00054787F48444438384444442038444448A1
:1010D0007F3854545418087E0901020C5252523E73
:1010E0007F0804047800447D40002040443D007F98
:1010F0001028440000417F40007C041804787C08DC
:1011000004047838444444387C1414140808141433
:10111000187C7C080404084854545420043F44407C
:10112000203C4040207C1C2040201C3C4030403C67
:1011300044281028440C5050503C4464544C440003
:101140000836410000007F0000004136080010080A
:101150000810087846414678FF00000000000000B3
:10116000000306090C101316191C1F2225282B2E0C
:10117000313336393C3F414447494C4E5153555821
:101180005A5C5E60626466686A6B6D6F70717374DE
:10119000757678797A7A7B7C7D7D7E7E7E7F7F7F97
:1011A0007F7F7F7F7E7E7E7D7D7C7B7A7A7978767D
:1011B00075747371706F6D6B6A68666462605E5C93
:1011C0005A585553514E4C494744413F3C393633A8
:1011D000312E2B2825221F1C191613100C0906036B
:1011E00000FDFAF7F4F0EDEAE7E4E1DEDBD8D5D272
:1011F000CFCDCAC7C4C1BFBCB9B7B4B2AFADABA83D
:10120000A6A4A2A09E9C9A9896959391908F8D8C5F
:101210008B8A888786868584838382828281818186
:101220008181818182828283838485868687888A80
:101230008B8C8D8F9091939596989A9C9EA0A2A44A
:10124000A6A8ABADAFB2B4B7B9BCBFC1C4C7CACD15
:10125000CFD2D5D8DBDEE1E4E7EAEDF0F4F7FAFD32
:10126000007A030A000000000000000001020304ED
:08127000060708090100000057
:0400000508000000EF
:00000001FF
